:100000000A128A11F62FFF1B0D2883137F188317FE
:100010000008840A0319FF0A080000308A00040857
:10002000840A82070034013400340A340034643412
:100030000034E834033410342734533465346734DF
:0E0040003A3400342534303432347534003410
:1004CC000A128A118B220A128A11831603139114B1
:1004DC0008000A128A118B220A128A11831603133E
:1004EC00111408000A128A118B220A128A1183161F
:1004FC000313111508000A128A118B220A128A1191
:10050C007008831203139300080083160313141945
:10051C00902A912A8B2A11081F39031D962A972A93
:10052C008B2A0800F100F0013A30710203189F2A5F
:10053C00A02AA82A30307102031CA52AA62AA82AB0
:10054C00F001F00A700C0800F300F201731CAF2AE2
:10055C00B02AB42A7008F1007108F2070310F00DEC
:10056C000310F30C7308031DBC2ABD2AAC2A7208B5
:10057C000800F6000F307605F4000A30F00076081B
:10058C00F50004300310F50CFF3E031DC82A750856
:10059C000A128A11AA220A128A1174070800F3009F
:1005AC0083120313081373080A128A1110230A12F8
:1005BC008A118312031388170B30F2006230F1009A
:1005CC00F10BE62AF20BE62A0000831203138813C0
:1005DC00080083160317880189018316031385010C
:1005EC00860188018312031385018601880100307E
:1005FC00A3000130A2008630A100A030A0000A1296
:10060C008A11BA230A128A117030831603138F04CD
:10061C000F140800F000701C142B152B192B8312CF
:10062C00031306161C2B831203130612F01C1F2B2C
:10063C00202B222B8616232B8612701D262B272B64
:10064C00292B06172A2B0613F01D2D2B2E2B302BA6
:10065C008617312B86130800F401F501701C372B1B
:10066C00382B3E2B7208F4070318F50A7308F507AC
:10067C0001300310F20DF30DFF3E031D3F2B013033
:10068C000310F10CF00CFF3E031D462B7008710497
:10069C00031D512B522B342B7508F1007408F000FC
:1006AC0008000A128A118B220A128A11831603136C
:1006BC0091150A128A118B220A128A1183120313C2
:1006CC001308F200F3017208F4007308F5000A1223
:1006DC008A118B220A128A1170037104031D772B65
:1006EC00782B7C2B8316031391127F2B8316031309
:1006FC00911611167508F1007408F0000800F4004A
:10070C0074080F39F2007408F039F30083120313E4
:10071C0008177308F10004300310F10CFF3E031DA1
:10072C00922B71080A128A1110230A128A11831251
:10073C00031388171A30F100F10BA22B000083125F
:10074C000313881372080A128A1110230A128A11D1
:10075C008312031388171A30F100F10BB32B00002E
:10076C008312031388130800283083120313940098
:10077C00831603139101831203132008A40021088C
:10078C00A5002208A6002308A70002300310A40D20
:10079C00A50DA60DA70DFF3E031DCC2B2708F300BE
:1007AC002608F2002508F1002408F0000030F700BC
:1007BC007A30F6001230F5000030F4000A128A117B
:1007CC0090250A128A117008FF3E831603139300BA
:1007DC0094018715071608000A128A116F220A1253
:1007EC008A11D030F0000030F1000A128A118122F7
:1007FC000A128A110030F000F1000A128A118122CB
:10080C000A128A110A128A1166220A128A11D1302E
:10081C00F0000030F1000A128A1181220A128A11AA
:10082C000030F000F1000A128A1157230A128A11C3
:10083C007008F7000A128A1178220A128A117708B6
:10084C000A128A11BF220A128A1108007808790448
:10085C000319312C322C612CFD01FD0A402C013086
:10086C000310F80DF90DFF3E031D362C0130FC0072
:10087C007C08FD07F91F432C442C352C79087B028E
:10088C00031D4A2C78087A02031C4D2C4E2C542C38
:10089C007808FA027908031CFB03FB0201300310F1
:1008AC00F90CF80CFF3E031D552C0130FD02031D05
:1008BC00602C612C442C7B08F9007A08F8000800A5
:1008CC00FA01FB018B2C7A087507F8007608F70003
:1008DC000318F70AFA1F732CF7037708F900790845
:1008EC0083120313FF00780884000A128A11032074
:1008FC000A128A110A128A1185230A128A110130EE
:10090C00FA070318FB0A0030FB077A087507F80092
:10091C007608F7000318F70AFA1F952CF7037708E7
:10092C00F900790883120313FF00780884000A1277
:10093C008A1103200A128A11003A031DA62CA72C37
:10094C00692C0800F501F601700871040319AF2C2D
:10095C00B02CE72CF701F70ABE2C01300310F00D78
:10096C00F10DFF3E031DB42C0130F4007408F707A1
:10097C00F11FC12CC22CB32C01300310F50DF60D58
:10098C00FF3E031DC32C71087302031DCF2C70088E
:10099C007202031CD22CD32CDA2C7008F2027108D0
:1009AC00031CF303F302751401300310F10CF00C6B
:1009BC00FF3E031DDB2C0130F702031DE62CE72C58
:1009CC00C22C7608F1007508F0000800F6007603DA
:1009DC00031DF12CF22C0F2D74087F3EF9007908C1
:1009EC00F50004300310F50CFF3E031DF82C7508C0
:1009FC00F70079080F39F80077080A128A11D52206
:100A0C000A128A1178080A128A11D5220A128A113E
:100A1C00312D02307606031D142D152D312D740841
:100A2C00BF3EF9007908F50004300310F50CFF3EC9
:100A3C00031D1B2D7508F70079080F39F80077088E
:100A4C000A128A11D5220A128A1178080A128A11FE
:100A5C00D5220A128A11080000300A128A111023BA
:100A6C000A128A113430F500F130F400F40B3C2DED
:100A7C00F50B3C2D412D03300A128A11D5220A1296
:100A8C008A110D30F500FB30F400F40B4B2DF50BF7
:100A9C004B2D502D03300A128A11D5220A128A11BD
:100AAC008530F400F40B582D03300A128A11D5222C
:100ABC000A128A1102300A128A11D5220A128A11DC
:100ACC0002300A128A11D5220A128A1108300A122F
:100ADC008A11D5220A128A1100300A128A11D522E3
:100AEC000A128A110C300A128A11D5220A128A11A2
:100AFC0000300A128A11D5220A128A1106300A1203
:100B0C008A11D5220A128A114230F400F40B8C2D72
:100B1C00000008000030FC000030FB000030FA0040
:100B2C000030F900730872047104700403199F2DCE
:100B3C00A02DED2DFD01FD0AB02D0130F8000310A4
:100B4C00F00DF10DF20DF30DF80BA52D0130F800A1
:100B5C007808FD07F31FB32DB42DA32D0130F80039
:100B6C000310F90DFA0DFB0DFC0DF80BB62D7308E7
:100B7C007702031DCB2D72087602031DCB2D710855
:100B8C007502031DCB2D70087402031CCE2DCF2DC6
:100B9C00DE2D7008F4027108031C710FF502720847
:100BAC00031C720FF6027308031C730FF7027914FF
:100BBC0001300310F30CF20CF10CF00CFF3E031D92
:100BCC00DF2D0130FD02031DEC2DED2DB42D7C0825
:100BDC00F3007B08F2007A08F1007908F0000800B5
:100BEC000A128A11EF220A128A110A128A1132256C
:100BFC000A128A11F401F40A01300A128A11EC2447
:100C0C000A128A110B30F5008030F6000A128A1194
:100C1C0066240A128A110A128A11F2230A128A1104
:100C2C0083120313B100F401F40A02300A128A1180
:100C3C00EC240A128A11103083120313A00031081D
:100C4C00AF00B0012F08A1003008A20032300A1208
:100C5C008A1172260A128A113230F5000030F60021
:100C6C000A128A1166240A128A1182308312031323
:100C7C00B000DD30AF00AF0B412EB00B412E0A128D
:100C8C008A116F220A128A115130F0000030F100E3
:100C9C000A128A1181220A128A110030F000F10026
:100CAC000A128A1157230A128A117008831203132D
:100CBC0085000A128A1178220A128A118230831254
:100CCC000313B000DD30AF00AF0B6A2EB00B6A2EF1
:100CDC00112E0A128A11002883120313AB00213043
:100CEC00A600E12F25302E0603197D2E7E2E882E90
:100CFC002B0884002E08831380000130A3002308E6
:100D0C00AB07E12FAC01AD01A701912E27150130E6
:100D1C00A3002308A007200884000A128A110D20C2
:100D2C000A128A11A300A4012408003A03199F2E69
:100D3C00A42E2308303A03198C2EA42E20088400EC
:100D4C000A128A110D200A128A110A128A1198228B
:100D5C000A128A11031CB32EB42EFA2E831203131B
:100D6C00AC01AD010A30F0000030F1008312031326
:100D7C002D08F3002C08F2000A128A1132230A12F1
:100D8C008A11710883120313AD007008AC0020089F
:100D9C0084000A128A110D200A128A11D03EA30077
:100DAC00FF3003180030A4002308AC070318AD0A69
:100DBC002408AD070130A3002308A00720088400F5
:100DCC000A128A110D200A128A110A128A1198220B
:100DDC000A128A110318F32EF42EB82EFA2EC030F4
:100DEC00A3002308A704162F013083120313A007B6
:100DFC00FF30200784000A128A110D200A128A1172
:100E0C00AE00A300A4012408003A03190E2FE12F11
:100E1C002308003A0319F12F753A0319F52EE12F27
:100E2C002608840083130008A800840A0008A9007F
:100E3C000230A3002308A607AE01AE0A2E08A300B9
:100E4C002307013E84000A128A110D200A128A110E
:100E5C00A4000A128A110D200A128A11A500250875
:100E6C002902031D3B2F2408280203183E2F3F2F75
:100E7C00402F4A2F0130A3002308AE0705302E0661
:100E8C00031D492F4A2F242F2D08803A803C031D27
:100E9C00512F2C082E020318542F552F612F83121B
:100EAC0003132E08A300A4012308AC022408031C7E
:100EBC00AD03AD02652F83120313AC01AD01271DE9
:100ECC00682F692F852F2C082D0403196E2F6F2F77
:100EDC00A02F2B0884003030831380000130A30036
:100EEC002308AB07FF30AC070318AD0AFF30AD0782
:100EFC002C082D04031D832F842F6F2FA02F2C085B
:100F0C002D0403198A2F8B2FA02F2B08840020303F
:100F1C00831380000130A3002308AB07FF30AC071C
:100F2C000318AD0AFF30AD072C082D04031D9F2FAD
:100F3C00A02F8B2F2E08AA00D82F0A30F8000030D3
:100F4C00F9002A08A3002307013E84000A128A1123
:100F5C000D200A128A11F0000A128A110D200A12B1
:100F6C008A11F1002908F3002808F2000A128A11EC
:100F7C00A8240A128A117108FB007008FA000A12E0
:100F8C008A112C240A128A117808303E831203131A
:100F9C00AE002B0884002E08831380000130A300C0
:100FAC002308AB07FF30A3002308AA072A0A031D56
:100FBC00E02FE12FA32F0130A007FF302007840082
:100FCC000A128A110D200A128A11AE002E08031D76
:100FDC00F02FF12F782E2B0884008313800108004A
:100FEC0083120313B101B201B301B40183010A12DC
:040FFC008A11F62D33
:08400000FF3FFF3FFF3FFF3FC0
:04400E00D420FF3F7C
:00000001FF
