:060000000A128A110C280F
:10000800FE00030EF9000A08FA000A128A111F28D6
:100018000A128A110F28FB01FC01FD0183134930E4
:10002800840069300A128A1574200A128A11830121
:100038000A128A15442F0B1C22282328D92A0B10B0
:1000480083120313861929282A2837280630F8002E
:100058003030F700F70B2E28F80B2E2800008312FB
:100068000313CE01CE0A861D3A283B287E284E036C
:10007800031D3F2840287E287B08031D4428452867
:100088004928FB01FB0ACE017E287B03031D4D286E
:100098004E2851280230FB00472802307B06031DFA
:1000A800562857285A280330FB00472803307B0678
:1000B800031D5F28602863280430FB0047280430AC
:1000C8007B06031D682869286C280530FB00472833
:1000D80005307B06031D7128722875280630FB0041
:1000E800472806307B06031D7A287B287E28FB01DB
:1000F800CE017E280619812882288D280230CE005C
:100108000330F8009730F700F70B8828F80B882899
:100118008D2883120313061D92289328122A023071
:100128004E06031D98289928122A7B03031D9D2833
:100138009E2836297C030319A228A328C728033040
:100148007C060319A828A928C72805307C060319A6
:10015800AE28AF28C72807307C060319B428B5286D
:10016800C72808307C060319BA28BB28C7280A30D4
:100178007C060319C028C128C7280C307C06031D3B
:10018800C628C728E1281F307D06031DCC28CD28A6
:10019800D6281F30FD007D080A128A15DD210A12B3
:1001A8008A1132290130F7007708FD077D080A1205
:1001B8008A15DD210A128A11322904307C060319B6
:1001C800E628E728F92806307C060319EC28ED28EC
:1001D800F92809307C060319F228F328F9280B308E
:1001E8007C06031DF828F92813291E307D06031DF7
:1001F800FE28FF2808291E30FD007D080A128A15EE
:10020800DD210A128A1132290130F7007708FD072B
:100218007D080A128A15DD210A128A113229023054
:100228007C06031D1829192932291C307D06031D57
:100238001E291F2928291C30FD007D080A128A154D
:10024800DD210A128A1132290130F7007708FD07EB
:100258007D080A128A15DD210A128A1183120313F6
:10026800CE01122A02307B06031D3B293C29922924
:100278000C307C06031D412942294B290C30FC0017
:100288007C080A128A156A220A128A113229013058
:10029800F7007708FC077C080A128A156A220A12F6
:1002A8008A1104307C0603195A295B296D29063006
:1002B8007C060319602961296D2909307C06031918
:1002C800662967296D290B307C06031D6C296D2969
:1002D80079297D0803197129722979291E300A1292
:1002E8008A15DD210A128A11322902307C06031D83
:1002F8007E297F298B297D080319832984298B2945
:100308001C300A128A15DD210A128A1132297D0849
:100318000A128A15DD210A128A11322903307B0656
:10032800031D97299829B22963306506031D9D2965
:100338009E29A7296330E50065080A128A159922C3
:100348000A128A1132290130F7007708E507650893
:100358000A128A1599220A128A11322904307B0658
:10036800031DB729B829D22917306606031DBD29F0
:10037800BE29C7291730E60066080A128A150C221A
:100388000A128A1132290130F7007708E607660851
:100398000A128A150C220A128A11322905307B06A4
:1003A800031DD729D829F2293B306706031DDD290B
:1003B800DE29E7293B30E70067080A128A153B2245
:1003C8000A128A1132290130F7007708E70767080F
:1003D8000A128A153B220A128A11322906307B0634
:1003E800031DF729F829122A3B306806031DFD2949
:1003F800FE29072A3B30E80068080A128A15AF214F
:100408000A128A1132290130F7007708E8076808CC
:100418000A128A15AF210A128A1132298618152A5A
:10042800162A212A0330CE000330F8009730F7004F
:10043800F70B1C2AF80B1C2A212A83120313861C8B
:10044800262A272AD92A03304E06031D2C2A2D2AAC
:10045800D92A7B03031D312A322A4C2A7D03031D26
:10046800362A372A402AFD01FD0A7D080A128A1514
:10047800DD210A128A11482A0130FD027D080A127C
:100488008A15DD210A128A1183120313CE01D92A93
:1004980002307B06031D512A522A692A7C03031D58
:1004A800562A572A602AFC01FC0A7C080A128A1577
:1004B8006A220A128A11482A0130FC027C080A12B0
:1004C8008A156A220A128A11482A03307B06031DFC
:1004D8006E2A6F2A852A6508031D732A742A7C2AC6
:1004E800E50165080A128A1599220A128A11482A12
:1004F8000130E50265080A128A1599220A128A1142
:10050800482A04307B06031D8A2A8B2AA12A6608FA
:10051800031D8F2A902A982AE60166080A128A156E
:100528000C220A128A11482A0130E60266080A12C9
:100538008A150C220A128A11482A05307B06031DE7
:10054800A62AA72ABD2A6708031DAB2AAC2AB42A03
:10055800E70167080A128A153B220A128A11482AFB
:100568000130E70267080A128A153B220A128A112B
:10057800482A06307B06031DC22AC32AD92A6808DE
:10058800031DC72AC82AD02AE80168080A128A1552
:10059800AF210A128A11482A0130E80268080A12B3
:1005A8008A15AF210A128A11482A7A088A00790E18
:1005B8008300FE0E7E0E09007B08031DE42AE52A4F
:1005C800802B0A128A15F5260A128A1167308312BF
:1005D8000313AA006630AB0068300A128A155C2340
:1005E8000A128A11073083120313A40001300A1279
:1005F8008A155A260A128A111D3083120313AE0077
:100608006608C300C4014308AF004408B000670887
:10061800C500C6014508B1004608B2006808C70011
:10062800C8014708B3004808B40051300A128A11BB
:1006380060250A128A11513083120313A500003075
:10064800A6000A128A15CE250A128A117C30831256
:100658000313AA006530AB007D300A128A152923DE
:100668000A128A11073083120313A40002300A12F7
:100678008A155A260A128A110B3083120313AE0008
:100688007D08C300C4014308AF004408B0007C08DB
:10069800C500C6014508B1004608B2006508C70094
:1006A800C8014708B3004808B40051300A128A113B
:1006B80060250A128A11513083120313A5000030F5
:1006C800A6000A128A15CE250A128A11053083124D
:1006D8000313A40002300A128A155A260A128A1134
:1006E800473083120313A5008030A6000A128A152A
:1006F800CE250A128A115F2D7B03031D842B852BBF
:10070800CF2B073083120313A40002300A128A1574
:100718005A260A128A110B3083120313AE007D0881
:10072800C300C4014308AF004408B0007C08C500FA
:10073800C6014508B1004608B2006508C700C801EF
:100748004708B3004808B40051300A128A116025DE
:100758000A128A11513083120313A5000030A60033
:100768000A128A15CE250A128A110530831203133C
:10077800A40002300A128A155A260A128A11353044
:1007880083120313A5008030A6000A128A15CE250D
:100798000A128A115F2D02307B06031DD42BD52B3C
:1007A8001F2C073083120313A40002300A128A1583
:1007B8005A260A128A110B3083120313AE007D08E1
:1007C800C300C4014308AF004408B0007C08C5005A
:1007D800C6014508B1004608B2006508C700C8014F
:1007E8004708B3004808B40051300A128A1160253E
:1007F8000A128A11513083120313A5000030A60093
:100808000A128A15CE250A128A110530831203139B
:10081800A40002300A128A155A260A128A113B309D
:1008280083120313A5008030A6000A128A15CE256C
:100838000A128A115F2D03307B06031D242C252CF8
:100848006F2C073083120313A40002300A128A1592
:100858005A260A128A110B3083120313AE007D0840
:10086800C300C4014308AF004408B0007C08C500B9
:10087800C6014508B1004608B2006508C700C801AE
:100888004708B3004808B40051300A128A1160259D
:100898000A128A11513083120313A5000030A600F2
:1008A8000A128A15CE250A128A11053083120313FB
:1008B800A40002300A128A155A260A128A114130F7
:1008C80083120313A5008030A6000A128A15CE25CC
:1008D8000A128A115F2D04307B06031D742C752CB7
:1008E800BF2C073083120313A40001300A128A15A3
:1008F8005A260A128A111D3083120313AE006608A5
:10090800C300C4014308AF004408B0006708C5002D
:10091800C6014508B1004608B2006808C700C8010A
:100928004708B3004808B40051300A128A116025FC
:100938000A128A11513083120313A5000030A60051
:100948000A128A15CE250A128A110530831203135A
:10095800A40002300A128A155A260A128A1138305F
:1009680083120313A5008030A6000A128A15CE252B
:100978000A128A115F2D05307B06031DC42CC52C75
:100988000F2D073083120313A40001300A128A15B1
:100998005A260A128A111D3083120313AE00660804
:1009A800C300C4014308AF004408B0006708C5008D
:1009B800C6014508B1004608B2006808C700C8016A
:1009C8004708B3004808B40051300A128A1160255C
:1009D8000A128A11513083120313A5000030A600B1
:1009E8000A128A15CE250A128A11053083120313BA
:1009F800A40002300A128A155A260A128A114430B3
:100A080083120313A5008030A6000A128A15CE258A
:100A18000A128A115F2D06307B06031D142D152D31
:100A28005F2D073083120313A40001300A128A15C0
:100A38005A260A128A111D3083120313AE00660863
:100A4800C300C4014308AF004408B0006708C500EC
:100A5800C6014508B1004608B2006808C700C801C9
:100A68004708B3004808B40051300A128A116025BB
:100A78000A128A11513083120313A5000030A60010
:100A88000A128A15CE250A128A1105308312031319
:100A9800A40002300A128A155A260A128A113E3018
:100AA80083120313A5008030A6000A128A15CE25EA
:100AB8000A128A115F2D080083120313C0002F3019
:100AC800B900222F25303F0603196B2D6C2D762D8A
:100AD800400884003F08831380000130B5003508C2
:100AE800C007222FBD01BE01BC017F2D3C1501307E
:100AF800B5003508AE072E0884000A128A11A92706
:100B08000A128A11B500B6013608003A03198D2D6C
:100B1800922D3508303A03197A2D922D2E0884002B
:100B28000A128A11A9270A128A110A128A15EF20B5
:100B38000A128A11031CA12DA22DE52D831203137D
:100B4800BD01BE010A3083120313A0000030A100CA
:100B58003E08A3003D08A2000A128A1588210A123D
:100B68008A11831203132108BE002008BD002E0835
:100B780084000A128A11A9270A128A11D03EB500E8
:100B8800FF3003180030B6003508BD070318BE0A49
:100B98003608BE070130B5003508AE072E088400B8
:100BA8000A128A11A9270A128A110A128A15EF2035
:100BB8000A128A110318E12DE22DA62DE52D3C1706
:100BC800072E013083120313AE07FF302E0784006F
:100BD8000A128A11A9270A128A11BF00B500B601A4
:100BE8003608003A0319F92D222F3508003A03195F
:100BF800322F643A0319072E0D3A0319072E1C3AAF
:100C08000319E32D222F3C1B0A2E0B2E252E390803
:100C1800840083130008BA00840A0008BB0002306D
:100C2800B5003508B907BB1F1A2E1B2E312E03300D
:100C3800B5003508BC04BA09BB09BA0A0319BB0ACE
:100C4800312E3908840083130008BA00840A00088A
:100C5800BB000230B5003508B907BF01BF0A3F081D
:100C6800B5003507013E84000A128A11A9270A1225
:100C78008A11B6000A128A11A9270A128A11B70026
:100C880037083B02031D4A2E36083A0203184D2E38
:100C98004E2E4F2E592E0130B5003508BF070530AE
:100CA8003F06031D582E592E332E3D083E040319C6
:100CB8005E2E5F2E6B2E3C0803390319642E652EB9
:100CC8006B2EFF30BD070318BE0AFF30BE073E0873
:100CD800803A803C031D722E3D083F020318752E92
:100CE800762E822E831203133F08B500B60135080D
:100CF800BD023608031CBE03BE02862E83120313F0
:100D0800BD01BE013C1D892E8A2EB52E3C08033933
:100D180003198F2E902E992E400884002D308313AE
:100D280080000130B5003508C0073D083E040319AE
:100D38009E2E9F2EDF2E40088400303083138000C3
:100D48000130B5003508C007FF30BD070318BE0ADB
:100D5800FF30BE073D083E04031DB32EB42E9F2E60
:100D6800DF2E3D083E040319BA2EBB2ED02E4008B4
:100D780084002030831380000130B5003508C00797
:100D8800FF30BD070318BE0AFF30BE073D083E040A
:100D9800031DCF2ED02EBB2E3C0803390319D52EA8
:100DA800D62EDF2E400884002D30831380000130BA
:100DB800B5003508C0073F08B800192F0A30A80049
:100DC8000030A9003808B5003507013E84000A1232
:100DD8008A11A9270A128A11A0000A128A11A927C2
:100DE8000A128A11A1003B08A3003A08A2000A12BD
:100DF8008A1514260A128A11831203132108AB00DC
:100E08002008AA000A128A1592250A128A1183124A
:100E180003132808303EBF00400884003F088313AE
:100E280080000130B5003508C007FF30B50035082F
:100E3800B807380A031D212F222FE22E0130AE07F2
:100E4800FF302E0784000A128A11A9270A128A1174
:100E5800BF003F08031D312F322F662D4008840044
:100E6800831380010800003083120313AC000030A4
:100E7800AB000030AA000030A90023082204210496
:100E880020040319482F492F962FAD01AD0A592F79
:100E98000130A8000310A00DA10DA20DA30DA80BF1
:100EA8004E2F0130A8002808AD07A31F5C2F5D2F27
:100EB8004C2F0130A8000310A90DAA0DAB0DAC0DE5
:100EC800A80B5F2F23082702031D742F2208260270
:100ED800031D742F21082502031D742F20082402E6
:100EE800031C772F782F872F2008A4022108031CC2
:100EF800210FA5022208031C220FA6022308031CA7
:100F0800230FA702291401300310A30CA20CA10C73
:100F1800A00CFF3E031D882F0130AD02031D952F45
:100F2800962F5D2F2C08A3002B08A2002A08A100E9
:100F38002908A0000800FF1BA92F83137F18831717
:100F48000008840A0319FF0A080007308A00040809
:100F5800840A82070034013400340A3400346434CB
:100F68000034E83403341034273425343034323430
:100F780075342F3425343034323475342F343234C8
:100F88003034253430343234753420340034253448
:100F98003034323475343A3425343034323475349C
:100FA8003A3425343034323475342034003425341E
:100FB800643420340034533431343A340034443403
:100FC800203400344834203400344D342034003484
:100FD8005334203400345934203400346D342034F0
:100FE8000034523400340A128A15CE200A128A11AB
:080FF800831603139114080095
:1010E80064008001840A0406031900340406752884
:1010F8000A128A15B4200A128A15831603131114CA
:1011080008000A128A15B4200A128A1583160313D6
:10111800111508000A128A15CE200A128A1583169C
:101128000313111408000A128A15CE200A128A1510
:1011380083160313111508000A128A15B4200A121F
:101148008A15720883120313930008000A128A157D
:10115800CE200A128A15831203132208930008006E
:10116800831603131419B928BA28B42811081F398B
:10117800031DBF28C028B428080000300A128A15A9
:1011880030210A128A1501300A128A1530210A12F2
:101198008A150800831603131419D328D428CE28D7
:1011A80011081F39031DD928DA28CE280800F000B5
:1011B800F1010A307002031CE228E328EA287008CB
:1011C800F63EF0007108103EF100DD287008710746
:1011D800F1007108080083120313A100A0013A303E
:1011E80021020318F828F928012930302102031CAC
:1011F800FE28FF280129A001A00A200C080083125C
:101208000313A000A1010A302002031C0C290D2998
:1012180014292008F63EA0002108103EA100072945
:1012280020082107A1002108080083120313A30046
:10123800A201231C2029212925292008A1002108F1
:10124800A2070310A00D0310A30C2308031D2D29CA
:101258002E291D292208080083120313A30008134E
:1012680023080A128A1568210A128A1583120313A1
:1012780088170B3083120313A2006130A100A10B61
:101288004329A20B43294829831203138813080012
:1012980083120313A7000F302705A4000A30A0000B
:1012A8002708A50004300310A50CFF3E031D57298D
:1012B80025080A128A1519210A128A15831203139E
:1012C8002407A6002608080083120313A000201C88
:1012D8006E296F297129061672290612A01C752914
:1012E80076297829861679298612201D7C297D2958
:1012F8007F29061780290613A01D8329842986299A
:10130800861787298613080083120313A401A501F1
:10131800201C8F29902996292208A4070318A50ABA
:101328002308A50701300310A20DA30DFF3E031DDE
:10133800972901300310A10CA00CFF3E031D9E2924
:1013480020082104031DA929AA298C292508A10000
:101358002408A0000800F6000A128A157C200A1248
:101368008A15D030F2000030F3000A128A15A02046
:101378000A128A150030F200F3000A128A15A0201A
:101388000A128A1576080A128A15DB200A128A15AB
:10139800F400F5017408F2007508F3000A128A15C2
:1013A800A0200A128A150A128A1585200A128A159F
:1013B8000800F6000A128A157C200A128A15D03015
:1013C800F2000030F3000A128A15A0200A128A15CA
:1013D8000430F2000030F3000A128A15A0200A1225
:1013E8008A1576080A128A15DB200A128A15F40073
:1013F800F5017408F2007508F3000A128A15A02096
:101408000A128A150A128A1585200A128A150800F6
:10141800F6000A128A157C200A128A15D030F200CA
:101428000030F3000A128A15A0200A128A15023029
:10143800F2000030F3000A128A15A0200A128A1559
:1014480076080A128A15DB200A128A15F400F501BB
:101458007408F2007508F3000A128A15A0200A120F
:101468008A150A128A1585200A128A150800F600BC
:101478000A128A157C200A128A15D030F200003030
:10148800F3000A128A15A0200A128A150130F20008
:101498000030F3000A128A15A0200A128A1576086D
:1014A8000A128A15DB200A128A15F400F50174085D
:1014B800F2007508F3000A128A15A0200A128A158C
:1014C8000A128A1585200A128A150800F6000A12DF
:1014D8008A157C200A128A15D030F2000030F300F9
:1014E8000A128A15A0200A128A150530F200003067
:1014F800F3000A128A15A0200A128A1576080A1221
:101508008A15DB200A128A15F400F5017408F20026
:101518007508F3000A128A15A0200A128A150A1201
:101528008A1585200A128A150800F6000A128A15FB
:101538007C200A128A15D030F2000030F3000A121B
:101548008A15A0200A128A150630F2000030F3002E
:101558000A128A15A0200A128A1576080A128A1514
:10156800DB200A128A15F400F5017408F2007508E8
:10157800F3000A128A15A0200A128A150A128A157F
:1015880085200A128A150800831603178801890125
:101598000E30831603138600880183120313860115
:1015A800870188018B170B108B1583160313811382
:1015B8009615161596149515151595140030831261
:1015C8000313B1000130B0008630AF00A030AE0088
:1015D8000A128A1558250A128A15703083160313C1
:1015E8008F040F1408000A128A15CE200A128A15D1
:1015F8008316031391150A128A15CE200A128A152A
:10160800831203131308A200A3012208A4002308CD
:10161800A5000A128A15CE200A128A15831203130E
:1016280020032104031D192B1A2B1E2B83160313C9
:101638009112212B8316031391161116831203138B
:101648002508A1002408A000080083120313AC0099
:101658002C08840004300A128A15A6260A128A1554
:101668000A128A154C210A128A1580008312031364
:101678002A08840005300A128A15A6260A128A1535
:101688000A128A154C210A128A1580008312031344
:101698002B08840006300A128A15A6260A128A1513
:1016A8000A128A154C210A128A1583138000080031
:1016B80083120313AC002C08840000300A128A1528
:1016C800A6260A128A150A128A154C210A128A15A8
:1016D80083138000831203132A08840001300A123E
:1016E8008A15A6260A128A150A128A154C210A1288
:1016F8008A1583138000831203132B088400023099
:101708000A128A15A6260A128A150A128A154C2167
:101718000A128A1583138000080083120313A60097
:101728000A128A158E200A128A15D03083120313E2
:10173800A2000030A3000A128A15AA200A128A15EC
:10174800003083120313A200A3000A128A15AA20EC
:101758000A128A158312031326080A128A1503210E
:101768000A128A1583120313A400A5012408A200F3
:101778002508A3000A128A15AA200A128A150A1235
:101788008A1597200A128A15080083120313A600E7
:101798000A128A158E200A128A15D0308312031372
:1017A800A2000030A3000A128A15AA200A128A157C
:1017B800043083120313A2000030A3000A128A1512
:1017C800AA200A128A158312031326080A128A15F8
:1017D80003210A128A1583120313A400A501240801
:1017E800A2002508A3000A128A15AA200A128A153F
:1017F8000A128A1597200A128A1508008312031301
:10180800A6000A128A158E200A128A15D030831271
:101818000313A2000030A3000A128A15AA200A1294
:101828008A15033083120313A2000030A3000A12A2
:101838008A15AA200A128A158312031326080A1287
:101848008A1503210A128A1583120313A400A5011D
:101858002408A2002508A3000A128A15AA200A1241
:101868008A150A128A1597200A128A150800831207
:101878000313A6000A128A158E200A128A15D03080
:1018880083120313A2000030A3000A128A15AA20AB
:101898000A128A15023083120313A2000030A30033
:1018A8000A128A15AA200A128A1583120313260817
:1018B8000A128A1503210A128A1583120313A40037
:1018C800A5012408A2002508A3000A128A15AA2047
:1018D8000A128A150A128A1597200A128A15080010
:1018E80083120313A6000A128A158E200A128A157B
:1018F800D03083120313A2000030A3000A128A1505
:10190800AA200A128A15013083120313A20000309C
:10191800A3000A128A15AA200A128A158312031331
:1019280026080A128A1503210A128A15831203133C
:10193800A400A5012408A2002508A3000A128A15FC
:10194800AA200A128A150A128A1597200A128A15DD
:10195800080083120313A6000A128A158E200A12A1
:101968008A15D03083120313A2000030A3000A1294
:101978008A15AA200A128A15053083120313A200B9
:101988000030A3000A128A15AA200A128A158312A7
:10199800031326080A128A1503210A128A158312CC
:1019A8000313A400A5012408A2002508A3000A1215
:1019B8008A15AA200A128A150A128A1597200A126D
:1019C8008A15080083120313A6000A128A158E20AE
:1019D8000A128A15D03083120313A2000030A30024
:1019E8000A128A15AA200A128A15063083120313CE
:1019F800A2000030A3000A128A15AA200A128A152A
:101A08008312031326080A128A1503210A128A155B
:101A180083120313A400A5012408A2002508A3002B
:101A28000A128A15AA200A128A150A128A159720FC
:101A38000A128A15080083120313A40024080F3918
:101A4800A2002408F039A30008172308A1000430D5
:101A58000310A10CFF3E031D2C2D21080A128A1524
:101A680068210A128A158312031388171930831202
:101A78000313A100A10B3E2D412D831203138813DC
:101A880022080A128A1568210A128A15831203137A
:101A98008817193083120313A100A10B512D542D5F
:101AA8008312031388130800283083120313940049
:101AB800831603139101831203132E08B2002F0813
:101AC800B3003008B4003108B50002300310B20D7D
:101AD800B30DB40DB50DFF3E031D6A2D3508A300E7
:101AE8003408A2003308A1003208A0000030A70083
:101AF8007A30A6001230A5000030A4000A128A111C
:101B080037270A128A15831203132008FF3E83160B
:101B18000313930094018715071608008312031313
:101B2800280829040319992D9A2DC92DAD01AD0A4C
:101B3800A82D01300310A80DA90DFF3E031D9E2DF1
:101B48000130AC002C08AD07A91FAB2DAC2D9D2D85
:101B580029082B02031DB22D28082A02031CB52DC3
:101B6800B62DBC2D2808AA022908031CAB03AB021A
:101B780001300310A90CA80CFF3E031DBD2D013038
:101B8800AD02031DC82DC92DAC2D2B08A9002A08AC
:101B9800A800080083120313AA01AB01F72D2A0835
:101BA8002507A8002608A7000318A70AAA1FDD2DE5
:101BB800A703831203132708A9002908FF00280890
:101BC80084000A128A119F270A128A150A128A1596
:101BD8001F250A128A15013083120313AA07031856
:101BE800AB0A0030AB072A082507A8002608A7007B
:101BF8000318A70AAA1F012EA70383120313270895
:101C0800A9002908FF00280884000A128A119F27C2
:101C18000A128A15003A031D122E132ED32D08001E
:101C280083120313A501A6012008210403191D2E00
:101C38001E2E552EA701A70A2C2E01300310A00D29
:101C4800A10DFF3E031D222E0130A4002408A70782
:101C5800A11F2F2E302E212E01300310A50DA60D09
:101C6800FF3E031D312E21082302031D3D2E2008AF
:101C78002202031C402E412E482E2008A2022108D1
:101C8800031CA303A302251401300310A10CA00C0C
:101C9800FF3E031D492E0130A702031D542E552E69
:101CA800302E2608A1002508A0000800831203137F
:101CB800A6002603031D612E622E812E24087F3E76
:101CC800A9002908A50004300310A50CFF3E031D38
:101CD800682E2508A70029080F39A80027080A1226
:101CE8008A1530210A128A158312031328080A124A
:101CF8008A1530210A128A15A52E02302606031DE0
:101D0800862E872EA52E2408BF3EA9002908A500E7
:101D180004300310A50CFF3E031D8D2E2508A700D7
:101D280029080F39A80027080A128A1530210A1233
:101D38008A158312031328080A128A1530210A12F9
:101D48008A15080083120313A8000A128A158E2028
:101D58000A128A15D03083120313A2000030A300A0
:101D68000A128A15AA200A128A1583120313280850
:101D7800A600A7012608A2002708A3000A128A15B0
:101D8800AA200A128A150A128A11F7270A128A1536
:101D9800D13083120313A2000030A3000A128A155F
:101DA800AA200A128A15003083120313A000A1008A
:101DB8000A128A15F7220A128A15831203132008B9
:101DC800A9000A128A1597200A128A15053083126B
:101DD8000313A600A60BEE2EF12E83120313290877
:101DE80008000A128A158E200A128A1551308312A9
:101DF8000313A2000030A3000A128A15AA200A12AF
:101E08008A15003083120313A000A1000A128A1554
:101E1800F7220A128A15831203132008CF00A4019F
:101E2800A40A02300A128A155A260A128A152D3077
:101E380083120313AE004F08C100C2014108AF006E
:101E48004208B00051300A128A1160250A128A1518
:101E5800513083120313A5000030A6000A128A1518
:101E6800CE250A128A150A128A1597200A128A158F
:101E7800053083120313C100C10B402F432F080004
:101E88000A128A15C8220A128A150A128A159B276D
:101E98000A128A150A128A15C1200A128A15831293
:101EA8000313A401A40A01300A128A155A260A1239
:101EB8008A15313083120313A5008030A6000A1258
:101EC8008A15CE250A128A1500300A128A1591231E
:101ED8000A128A1500300A128A1574240A128A1501
:101EE80016300A128A153B240A128A1503300A1280
:101EF8008A1502240A128A1508300A128A15C9237B
:101F08000A128A1508300A128A15AD240A128A158F
:101F180017300A128A15E6240A128A150A128A113B
:101F2800E0220A128A15922F0A128A110C28003010
:101F38000A128A1568210A128A153430831203138B
:101F4800A500F130A400A40BA72FA50BA72F0330E1
:101F58000A128A1530210A128A150D3083120313CA
:101F6800A500FB30A400A40BB72FA50BB72F033097
:101F78000A128A1530210A128A1584308312031333
:101F8800A400A40BC52F000003300A128A153021C3
:101F98000A128A1502300A128A1530210A128A1585
:101FA80002300A128A1530210A128A1508300A12DC
:101FB8008A1530210A128A1500300A128A15302132
:101FC8000A128A150C300A128A1530210A128A154B
:101FD80000300A128A1530210A128A1506300A12B0
:101FE8008A1530210A128A15413083120313A4007E
:081FF800A40BFC2FFF2F0800D1
:08400000FF3FFF3FFF3FFF3FC0
:04400E00D420FF3F7C
:00000001FF
