:060000000A128A110C280F
:10000800FE00030EF5000A08F6000A128A111129EB
:100018000A128A110F28F701F801F901FA01FB0108
:1000280083010A128A1178298312031320082104F4
:10003800031D1F2820282728C3309F058316031770
:100048000808013888008312031320032104031DC4
:100058002E282F2838281F08C33904389F008316F4
:100068000317080802388800023083120313200699
:100078002104031D402841284A281F08C33908388D
:100088009F0083160317080804388800033083127A
:10009800031320062104031D522853285C281F0837
:1000A800C3390C389F0083160317080808388800DE
:1000B80004308312031320062104031D64286528D5
:1000C8006E281F08C33910389F00831603170808C5
:1000D8001038880005308312031320062104031DFD
:1000E8007628772880281F08C33914389F0083167C
:1000F80003170808203888000630831203132006E7
:100108002104031D8828892892281F08C339183814
:100118009F008316031708084038880007308312A9
:10012800031320062104031D9A289B28A4281F08CE
:10013800C3391C389F0083160317080880388800C5
:1001480008308312031320062104031DAC28AD28B0
:10015800B6281F08C33920389F00831603170908DB
:100168000138890009308312031320062104031D76
:10017800BE28BF28C8281F08C33924389F00831603
:1001880003170908023889000A308312031320066E
:100198002104031DD028D128DA281F08C33928389C
:1001A8009F00831603170908043889000B3083124F
:1001B800031320062104031DE228E328EC281F0866
:1001C800C3392C389F00831603170908083889009B
:1001D8000C308312031320062104031DF428F5288C
:1001E800FE281F08C33930389F00831603170908F3
:1001F800103889000D308312031320062104031DD3
:100208000629072910291F08C33934389F00831687
:1002180003170908203889000800831203130C1FEC
:100228001629172921290A128A11F7210A128A1177
:100238007008F900831203130C138C1D2429252937
:1002480071291412141B29292A292E29941F2D29B2
:100258002E2933291308FB0014139413141683163C
:100268000313941A382939294F2914193C293D298F
:100278004F29831203131308FB008C1114168316DD
:100288000313141C482949294329A630F400F40B08
:100298004B2900006E29941A522953296E29141DDE
:1002A800562957296E29831203131308FB00831656
:1002B8000313141079088312031393001416A6303D
:1002C800F400F40B652900008316031314186D2934
:1002D8006E296829831203138C1176088A00750E1B
:1002E8008300FE0E7E0E09000A128A11BF210A122F
:1002F8008A11003083120313A200A3000A128A1184
:100308009C210A128A11831203139F188C298D29A4
:1003180087299F14823083120313A600DD30A500BD
:10032800A50B9429A60B942987290A128A110C284F
:10033800831603130C17831203130C139F131F1335
:10034800831603139F121F129F138312031323088C
:10035800A1002208A0000A128A1118200A128A1184
:10036800831203131F14053083120313A400A40B74
:10037800BB29BE29080083160317890108148316B0
:10038800031305148601880183120313850186016E
:10039800880150300A128A11DB210A128A11703042
:1003A800831603138F040F148B170B17080083127F
:1003B8000313A0002008831603139300363083121A
:1003C80003139400803083160313940001309100C6
:1003D800871507168B170B17831203138C118316B7
:1003E80003138C150800831203131E08F200F3018F
:0A03F8007208F0007308F10008001D
:08400000FF3FFF3FFF3FFF3FC0
:04400E00D420FF3F7C
:00000001FF
